{
  "contractName": "Vote",
  "abi": [
    {
      "inputs": [
        {
          "internalType": "string[]",
          "name": "proposalNames",
          "type": "string[]"
        }
      ],
      "stateMutability": "nonpayable",
      "type": "constructor"
    },
    {
      "anonymous": false,
      "inputs": [
        {
          "indexed": true,
          "internalType": "uint256",
          "name": "proposalIndex",
          "type": "uint256"
        },
        {
          "indexed": false,
          "internalType": "string",
          "name": "description",
          "type": "string"
        }
      ],
      "name": "ProposalAdded",
      "type": "event"
    },
    {
      "anonymous": false,
      "inputs": [
        {
          "indexed": true,
          "internalType": "address",
          "name": "voter",
          "type": "address"
        },
        {
          "indexed": true,
          "internalType": "uint256",
          "name": "proposalIndex",
          "type": "uint256"
        }
      ],
      "name": "VoteCast",
      "type": "event"
    },
    {
      "inputs": [
        {
          "internalType": "address",
          "name": "",
          "type": "address"
        }
      ],
      "name": "hasVoted",
      "outputs": [
        {
          "internalType": "bool",
          "name": "",
          "type": "bool"
        }
      ],
      "stateMutability": "view",
      "type": "function",
      "constant": true
    },
    {
      "inputs": [],
      "name": "owner",
      "outputs": [
        {
          "internalType": "address",
          "name": "",
          "type": "address"
        }
      ],
      "stateMutability": "view",
      "type": "function",
      "constant": true
    },
    {
      "inputs": [
        {
          "internalType": "uint256",
          "name": "",
          "type": "uint256"
        }
      ],
      "name": "proposals",
      "outputs": [
        {
          "internalType": "string",
          "name": "description",
          "type": "string"
        },
        {
          "internalType": "uint256",
          "name": "voteCount",
          "type": "uint256"
        }
      ],
      "stateMutability": "view",
      "type": "function",
      "constant": true
    },
    {
      "inputs": [
        {
          "internalType": "uint256",
          "name": "proposalIndex",
          "type": "uint256"
        }
      ],
      "name": "vote",
      "outputs": [],
      "stateMutability": "nonpayable",
      "type": "function"
    },
    {
      "inputs": [
        {
          "internalType": "uint256",
          "name": "index",
          "type": "uint256"
        }
      ],
      "name": "getProposal",
      "outputs": [
        {
          "internalType": "string",
          "name": "description",
          "type": "string"
        },
        {
          "internalType": "uint256",
          "name": "voteCount",
          "type": "uint256"
        }
      ],
      "stateMutability": "view",
      "type": "function",
      "constant": true
    },
    {
      "inputs": [
        {
          "internalType": "string",
          "name": "description",
          "type": "string"
        }
      ],
      "name": "addProposal",
      "outputs": [],
      "stateMutability": "nonpayable",
      "type": "function"
    },
    {
      "inputs": [],
      "name": "getNumProposals",
      "outputs": [
        {
          "internalType": "uint256",
          "name": "",
          "type": "uint256"
        }
      ],
      "stateMutability": "view",
      "type": "function",
      "constant": true
    },
    {
      "inputs": [],
      "name": "getAllProposals",
      "outputs": [
        {
          "components": [
            {
              "internalType": "string",
              "name": "description",
              "type": "string"
            },
            {
              "internalType": "uint256",
              "name": "voteCount",
              "type": "uint256"
            }
          ],
          "internalType": "struct Vote.Proposal[]",
          "name": "",
          "type": "tuple[]"
        }
      ],
      "stateMutability": "view",
      "type": "function",
      "constant": true
    },
    {
      "inputs": [
        {
          "internalType": "address",
          "name": "voter",
          "type": "address"
        }
      ],
      "name": "hasUserVoted",
      "outputs": [
        {
          "internalType": "bool",
          "name": "",
          "type": "bool"
        }
      ],
      "stateMutability": "view",
      "type": "function",
      "constant": true
    }
  ],
  "bytecode": "0x608060405234801562000010575f80fd5b5060405162001a4438038062001a44833981810160405281019062000036919062000398565b335f806101000a81548173ffffffffffffffffffffffffffffffffffffffff021916908373ffffffffffffffffffffffffffffffffffffffff1602179055505f5b8151811015620001135760016040518060400160405280848481518110620000a457620000a3620003e7565b5b602002602001015181526020015f815250908060018154018082558091505060019003905f5260205f2090600202015f909190919091505f820151815f019081620000f091906200064b565b5060208201518160010155505080806200010a906200075c565b91505062000077565b5050620007a8565b5f604051905090565b5f80fd5b5f80fd5b5f80fd5b5f601f19601f8301169050919050565b7f4e487b71000000000000000000000000000000000000000000000000000000005f52604160045260245ffd5b620001788262000130565b810181811067ffffffffffffffff821117156200019a576200019962000140565b5b80604052505050565b5f620001ae6200011b565b9050620001bc82826200016d565b919050565b5f67ffffffffffffffff821115620001de57620001dd62000140565b5b602082029050602081019050919050565b5f80fd5b5f80fd5b5f67ffffffffffffffff82111562000214576200021362000140565b5b6200021f8262000130565b9050602081019050919050565b5f5b838110156200024b5780820151818401526020810190506200022e565b5f8484015250505050565b5f6200026c6200026684620001f7565b620001a3565b9050828152602081018484840111156200028b576200028a620001f3565b5b620002988482856200022c565b509392505050565b5f82601f830112620002b757620002b66200012c565b5b8151620002c984826020860162000256565b91505092915050565b5f620002e8620002e284620001c1565b620001a3565b905080838252602082019050602084028301858111156200030e576200030d620001ef565b5b835b818110156200035c57805167ffffffffffffffff8111156200033757620003366200012c565b5b808601620003468982620002a0565b8552602085019450505060208101905062000310565b5050509392505050565b5f82601f8301126200037d576200037c6200012c565b5b81516200038f848260208601620002d2565b91505092915050565b5f60208284031215620003b057620003af62000124565b5b5f82015167ffffffffffffffff811115620003d057620003cf62000128565b5b620003de8482850162000366565b91505092915050565b7f4e487b71000000000000000000000000000000000000000000000000000000005f52603260045260245ffd5b5f81519050919050565b7f4e487b71000000000000000000000000000000000000000000000000000000005f52602260045260245ffd5b5f60028204905060018216806200046357607f821691505b6020821081036200047957620004786200041e565b5b50919050565b5f819050815f5260205f209050919050565b5f6020601f8301049050919050565b5f82821b905092915050565b5f60088302620004dd7fffffffffffffffffffffffffffffffffffffffffffffffffffffffffffffffff82620004a0565b620004e98683620004a0565b95508019841693508086168417925050509392505050565b5f819050919050565b5f819050919050565b5f620005336200052d620005278462000501565b6200050a565b62000501565b9050919050565b5f819050919050565b6200054e8362000513565b620005666200055d826200053a565b848454620004ac565b825550505050565b5f90565b6200057c6200056e565b6200058981848462000543565b505050565b5b81811015620005b057620005a45f8262000572565b6001810190506200058f565b5050565b601f821115620005ff57620005c9816200047f565b620005d48462000491565b81016020851015620005e4578190505b620005fc620005f38562000491565b8301826200058e565b50505b505050565b5f82821c905092915050565b5f620006215f198460080262000604565b1980831691505092915050565b5f6200063b838362000610565b9150826002028217905092915050565b620006568262000414565b67ffffffffffffffff81111562000672576200067162000140565b5b6200067e82546200044b565b6200068b828285620005b4565b5f60209050601f831160018114620006c1575f8415620006ac578287015190505b620006b885826200062e565b86555062000727565b601f198416620006d1866200047f565b5f5b82811015620006fa57848901518255600182019150602085019450602081019050620006d3565b868310156200071a578489015162000716601f89168262000610565b8355505b6001600288020188555050505b505050505050565b7f4e487b71000000000000000000000000000000000000000000000000000000005f52601160045260245ffd5b5f620007688262000501565b91507fffffffffffffffffffffffffffffffffffffffffffffffffffffffffffffffff82036200079d576200079c6200072f565b5b600182019050919050565b61128e80620007b65f395ff3fe608060405234801561000f575f80fd5b5060043610610091575f3560e01c8063798974dd11610064578063798974dd1461012e5780637fabe80a1461014c5780638da5cb5b1461017c578063c7f758a81461019a578063cceb68f5146101cb57610091565b80630121b93f14610095578063013cf08b146100b157806309eef43e146100e25780632fdae3c514610112575b5f80fd5b6100af60048036038101906100aa9190610873565b6101e9565b005b6100cb60048036038101906100c69190610873565b61038e565b6040516100d9929190610937565b60405180910390f35b6100fc60048036038101906100f791906109bf565b610443565b6040516101099190610a04565b60405180910390f35b61012c60048036038101906101279190610b49565b610460565b005b610136610595565b6040516101439190610b90565b60405180910390f35b610166600480360381019061016191906109bf565b6105a1565b6040516101739190610a04565b60405180910390f35b6101846105f3565b6040516101919190610bb8565b60405180910390f35b6101b460048036038101906101af9190610873565b610616565b6040516101c2929190610937565b60405180910390f35b6101d361073a565b6040516101e09190610d1d565b60405180910390f35b60025f3373ffffffffffffffffffffffffffffffffffffffff1673ffffffffffffffffffffffffffffffffffffffff1681526020019081526020015f205f9054906101000a900460ff1615610273576040517f08c379a000000000000000000000000000000000000000000000000000000000815260040161026a90610d87565b60405180910390fd5b60018054905081106102ba576040517f08c379a00000000000000000000000000000000000000000000000000000000081526004016102b190610def565b60405180910390fd5b600181815481106102ce576102cd610e0d565b5b905f5260205f2090600202016001015f8154809291906102ed90610e67565b9190505550600160025f3373ffffffffffffffffffffffffffffffffffffffff1673ffffffffffffffffffffffffffffffffffffffff1681526020019081526020015f205f6101000a81548160ff021916908315150217905550803373ffffffffffffffffffffffffffffffffffffffff167fa36cc2bebb74db33e9f88110a07ef56e1b31b24b4c4f51b54b1664266e29f45b60405160405180910390a350565b6001818154811061039d575f80fd5b905f5260205f2090600202015f91509050805f0180546103bc90610edb565b80601f01602080910402602001604051908101604052809291908181526020018280546103e890610edb565b80156104335780601f1061040a57610100808354040283529160200191610433565b820191905f5260205f20905b81548152906001019060200180831161041657829003601f168201915b5050505050908060010154905082565b6002602052805f5260405f205f915054906101000a900460ff1681565b5f8054906101000a900473ffffffffffffffffffffffffffffffffffffffff1673ffffffffffffffffffffffffffffffffffffffff163373ffffffffffffffffffffffffffffffffffffffff16146104ed576040517f08c379a00000000000000000000000000000000000000000000000000000000081526004016104e490610f7b565b60405180910390fd5b600160405180604001604052808381526020015f815250908060018154018082558091505060019003905f5260205f2090600202015f909190919091505f820151815f01908161053d9190611136565b506020820151816001015550506001808054905061055b9190611205565b7ff970aa486598017b8116c2beb18c50d4584ecbc3c688817f59b26796725f31bf8260405161058a9190611238565b60405180910390a250565b5f600180549050905090565b5f60025f8373ffffffffffffffffffffffffffffffffffffffff1673ffffffffffffffffffffffffffffffffffffffff1681526020019081526020015f205f9054906101000a900460ff169050919050565b5f8054906101000a900473ffffffffffffffffffffffffffffffffffffffff1681565b60605f6001805490508310610660576040517f08c379a000000000000000000000000000000000000000000000000000000000815260040161065790610def565b60405180910390fd5b5f6001848154811061067557610674610e0d565b5b905f5260205f2090600202016040518060400160405290815f8201805461069b90610edb565b80601f01602080910402602001604051908101604052809291908181526020018280546106c790610edb565b80156107125780601f106106e957610100808354040283529160200191610712565b820191905f5260205f20905b8154815290600101906020018083116106f557829003601f168201915b505050505081526020016001820154815250509050805f015181602001519250925050915091565b60606001805480602002602001604051908101604052809291908181526020015f905b82821015610826578382905f5260205f2090600202016040518060400160405290815f8201805461078d90610edb565b80601f01602080910402602001604051908101604052809291908181526020018280546107b990610edb565b80156108045780601f106107db57610100808354040283529160200191610804565b820191905f5260205f20905b8154815290600101906020018083116107e757829003601f168201915b505050505081526020016001820154815250508152602001906001019061075d565b50505050905090565b5f604051905090565b5f80fd5b5f80fd5b5f819050919050565b61085281610840565b811461085c575f80fd5b50565b5f8135905061086d81610849565b92915050565b5f6020828403121561088857610887610838565b5b5f6108958482850161085f565b91505092915050565b5f81519050919050565b5f82825260208201905092915050565b5f5b838110156108d55780820151818401526020810190506108ba565b5f8484015250505050565b5f601f19601f8301169050919050565b5f6108fa8261089e565b61090481856108a8565b93506109148185602086016108b8565b61091d816108e0565b840191505092915050565b61093181610840565b82525050565b5f6040820190508181035f83015261094f81856108f0565b905061095e6020830184610928565b9392505050565b5f73ffffffffffffffffffffffffffffffffffffffff82169050919050565b5f61098e82610965565b9050919050565b61099e81610984565b81146109a8575f80fd5b50565b5f813590506109b981610995565b92915050565b5f602082840312156109d4576109d3610838565b5b5f6109e1848285016109ab565b91505092915050565b5f8115159050919050565b6109fe816109ea565b82525050565b5f602082019050610a175f8301846109f5565b92915050565b5f80fd5b5f80fd5b7f4e487b71000000000000000000000000000000000000000000000000000000005f52604160045260245ffd5b610a5b826108e0565b810181811067ffffffffffffffff82111715610a7a57610a79610a25565b5b80604052505050565b5f610a8c61082f565b9050610a988282610a52565b919050565b5f67ffffffffffffffff821115610ab757610ab6610a25565b5b610ac0826108e0565b9050602081019050919050565b828183375f83830152505050565b5f610aed610ae884610a9d565b610a83565b905082815260208101848484011115610b0957610b08610a21565b5b610b14848285610acd565b509392505050565b5f82601f830112610b3057610b2f610a1d565b5b8135610b40848260208601610adb565b91505092915050565b5f60208284031215610b5e57610b5d610838565b5b5f82013567ffffffffffffffff811115610b7b57610b7a61083c565b5b610b8784828501610b1c565b91505092915050565b5f602082019050610ba35f830184610928565b92915050565b610bb281610984565b82525050565b5f602082019050610bcb5f830184610ba9565b92915050565b5f81519050919050565b5f82825260208201905092915050565b5f819050602082019050919050565b5f82825260208201905092915050565b5f610c148261089e565b610c1e8185610bfa565b9350610c2e8185602086016108b8565b610c37816108e0565b840191505092915050565b610c4b81610840565b82525050565b5f604083015f8301518482035f860152610c6b8282610c0a565b9150506020830151610c806020860182610c42565b508091505092915050565b5f610c968383610c51565b905092915050565b5f602082019050919050565b5f610cb482610bd1565b610cbe8185610bdb565b935083602082028501610cd085610beb565b805f5b85811015610d0b5784840389528151610cec8582610c8b565b9450610cf783610c9e565b925060208a01995050600181019050610cd3565b50829750879550505050505092915050565b5f6020820190508181035f830152610d358184610caa565b905092915050565b7f566f7573206176657a2064656a6120766f7465000000000000000000000000005f82015250565b5f610d716013836108a8565b9150610d7c82610d3d565b602082019050919050565b5f6020820190508181035f830152610d9e81610d65565b9050919050565b7f496e6465782064652070726f706f736974696f6e20696e76616c6964650000005f82015250565b5f610dd9601d836108a8565b9150610de482610da5565b602082019050919050565b5f6020820190508181035f830152610e0681610dcd565b9050919050565b7f4e487b71000000000000000000000000000000000000000000000000000000005f52603260045260245ffd5b7f4e487b71000000000000000000000000000000000000000000000000000000005f52601160045260245ffd5b5f610e7182610840565b91507fffffffffffffffffffffffffffffffffffffffffffffffffffffffffffffffff8203610ea357610ea2610e3a565b5b600182019050919050565b7f4e487b71000000000000000000000000000000000000000000000000000000005f52602260045260245ffd5b5f6002820490506001821680610ef257607f821691505b602082108103610f0557610f04610eae565b5b50919050565b7f5365756c206c2761646d696e69737472617465757220706575742065666665635f8201527f7475657220636574746520616374696f6e000000000000000000000000000000602082015250565b5f610f656031836108a8565b9150610f7082610f0b565b604082019050919050565b5f6020820190508181035f830152610f9281610f59565b9050919050565b5f819050815f5260205f209050919050565b5f6020601f8301049050919050565b5f82821b905092915050565b5f60088302610ff57fffffffffffffffffffffffffffffffffffffffffffffffffffffffffffffffff82610fba565b610fff8683610fba565b95508019841693508086168417925050509392505050565b5f819050919050565b5f61103a61103561103084610840565b611017565b610840565b9050919050565b5f819050919050565b61105383611020565b61106761105f82611041565b848454610fc6565b825550505050565b5f90565b61107b61106f565b61108681848461104a565b505050565b5b818110156110a95761109e5f82611073565b60018101905061108c565b5050565b601f8211156110ee576110bf81610f99565b6110c884610fab565b810160208510156110d7578190505b6110eb6110e385610fab565b83018261108b565b50505b505050565b5f82821c905092915050565b5f61110e5f19846008026110f3565b1980831691505092915050565b5f61112683836110ff565b9150826002028217905092915050565b61113f8261089e565b67ffffffffffffffff81111561115857611157610a25565b5b6111628254610edb565b61116d8282856110ad565b5f60209050601f83116001811461119e575f841561118c578287015190505b611196858261111b565b8655506111fd565b601f1984166111ac86610f99565b5f5b828110156111d3578489015182556001820191506020850194506020810190506111ae565b868310156111f057848901516111ec601f8916826110ff565b8355505b6001600288020188555050505b505050505050565b5f61120f82610840565b915061121a83610840565b925082820390508181111561123257611231610e3a565b5b92915050565b5f6020820190508181035f83015261125081846108f0565b90509291505056fea26469706673582212207f90216bcbd0fa792a1a6402f2a4de2e99405043f7b66b9d323f7fafd97e079b64736f6c63430008140033",
  "immutableReferences": {},
  "source": "// SPDX-License-Identifier: MIT\r\npragma solidity ^0.8.0;\r\n\r\ncontract Vote {\r\n\r\n    // Adresse du crateur du contrat (admin)\r\n    address public owner;\r\n    \r\n    // Structure reprsentant une proposition\r\n    struct Proposal {\r\n        string description;  // Description de la proposition\r\n        uint voteCount;     // Nombre de votes reus\r\n    }\r\n    \r\n    // Tableau dynamique stockant toutes les propositions\r\n    Proposal[] public proposals;\r\n    \r\n    // Mapping pour suivre qui a dj vot (protection contre les doubles votes)\r\n    mapping(address => bool) public hasVoted;\r\n    \r\n    // vnements\r\n    event VoteCast(address indexed voter, uint indexed proposalIndex);\r\n    event ProposalAdded(uint indexed proposalIndex, string description);\r\n    \r\n    constructor(string[] memory proposalNames) {\r\n        // Initialiser l'admin du contrat\r\n        owner = msg.sender;\r\n        // Initialisation des propositions avec un voteCount  0\r\n        for (uint i = 0; i < proposalNames.length; i++) {\r\n            proposals.push(Proposal({\r\n                description: proposalNames[i],\r\n                voteCount: 0\r\n            }));\r\n        }\r\n    }\r\n\r\n    // Modificateur de restriction : seul l'admin peut appeler certaines fonctions\r\n    modifier onlyOwner() {\r\n        require(msg.sender == owner, \"Seul l'administrateur peut effectuer cette action\");\r\n        _;\r\n    }\r\n    \r\n    function vote(uint proposalIndex) external {\r\n        // Vrifier que l'utilisateur n'a pas encore vot\r\n        require(!hasVoted[msg.sender], \"Vous avez deja vote\");\r\n        \r\n        // Vrifier que l'index de la proposition est valide\r\n        require(proposalIndex < proposals.length, \"Index de proposition invalide\");\r\n        \r\n        // Enregistrer le vote\r\n        proposals[proposalIndex].voteCount++;\r\n        \r\n        // Marquer l'utilisateur comme ayant vot\r\n        hasVoted[msg.sender] = true;\r\n        \r\n        // mettre l'vnement de vote\r\n        emit VoteCast(msg.sender, proposalIndex);\r\n    }\r\n    \r\n    function getProposal(uint index) external view returns (string memory description, uint voteCount) {\r\n        require(index < proposals.length, \"Index de proposition invalide\");\r\n        \r\n        Proposal memory proposal = proposals[index];\r\n        return (proposal.description, proposal.voteCount);\r\n    }\r\n\r\n    //Permet  l'admin d'ajouter une proposition dynamiquement\r\n    function addProposal(string memory description) external onlyOwner {\r\n        proposals.push(Proposal({\r\n            description: description,\r\n            voteCount: 0\r\n        }));\r\n        emit ProposalAdded(proposals.length - 1, description);\r\n    }\r\n    \r\n    \r\n    function getNumProposals() external view returns (uint) {\r\n        return proposals.length;\r\n    }\r\n    \r\n    \r\n    function getAllProposals() external view returns (Proposal[] memory) {\r\n        return proposals;\r\n    }\r\n    \r\n    \r\n    function hasUserVoted(address voter) external view returns (bool) {\r\n        return hasVoted[voter];\r\n    }\r\n}",
  "sourcePath": "/mnt/c/Users/halit/OneDrive/Documents/L3/projet/BlockchainVote/contracts/Vote.sol",
  "compiler": {
    "name": "solc",
    "version": "0.8.20+commit.a1b79de6.Emscripten.clang"
  },
  "schemaVersion": "3.4.16",
  "updatedAt": "2025-06-16T22:07:14.166Z",
  "networkType": "ethereum",
  "devdoc": {
    "kind": "dev",
    "methods": {},
    "version": 1
  },
  "userdoc": {
    "kind": "user",
    "methods": {},
    "version": 1
  }
}